{"abi":[{"type":"fallback","stateMutability":"payable"},{"type":"function","name":"setImplementation","inputs":[{"name":"addr","type":"address","internalType":"address"}],"outputs":[],"stateMutability":"nonpayable"}],"bytecode":{"object":"0x6080604052348015600e575f5ffd5b506101cf8061001c5f395ff3fe60806040526004361061001d575f3560e01c8063d784d42614610100575b7f360894a13ba1a3210667c828492db98dca3e2076cc3735a920a3ca505d382bbc546040515f9136916060916001600160a01b031690849081908390610066908390889061015d565b5f60405180830381855af49150503d805f811461009e576040519150601f19603f3d011682016040523d82523d5f602084013e6100a3565b606091505b5091509150816100f25760405162461bcd60e51b815260206004820152601660248201527511985a5b1959081d1bc819195b1959d85d1958d85b1b60521b604482015260640160405180910390fd5b805195506020019350505050f35b34801561010b575f5ffd5b5061015b61011a36600461016c565b7f360894a13ba1a3210667c828492db98dca3e2076cc3735a920a3ca505d382bbc80546001600160a01b0319166001600160a01b0392909216919091179055565b005b818382375f9101908152919050565b5f6020828403121561017c575f5ffd5b81356001600160a01b0381168114610192575f5ffd5b939250505056fea26469706673582212208998ec81d4846e6dff217b085e2abb2b75e4d68351bfcd2cd6d96733dec00bcc64736f6c634300081c0033","linkReferences":{}},"methodIdentifiers":{"setImplementation(address)":"d784d426"},"id":0}