{"abi":[{"type":"constructor","inputs":[{"name":"_target","type":"address","internalType":"address"}],"stateMutability":"nonpayable"},{"type":"function","name":"target","inputs":[],"outputs":[{"name":"","type":"address","internalType":"address"}],"stateMutability":"view"},{"type":"function","name":"vote","inputs":[],"outputs":[{"name":"","type":"uint256","internalType":"uint256"}],"stateMutability":"nonpayable"}],"bytecode":{"object":"0x608060405234801561000f575f5ffd5b50604051610302380380610302833981810160405281019061003191906100d4565b805f5f6101000a81548173ffffffffffffffffffffffffffffffffffffffff021916908373ffffffffffffffffffffffffffffffffffffffff160217905550506100ff565b5f5ffd5b5f73ffffffffffffffffffffffffffffffffffffffff82169050919050565b5f6100a38261007a565b9050919050565b6100b381610099565b81146100bd575f5ffd5b50565b5f815190506100ce816100aa565b92915050565b5f602082840312156100e9576100e8610076565b5b5f6100f6848285016100c0565b91505092915050565b6101f68061010c5f395ff3fe608060405234801561000f575f5ffd5b5060043610610034575f3560e01c8063632a9a5214610038578063d4b8399214610056575b5f5ffd5b610040610074565b60405161004d919061014f565b60405180910390f35b61005e610113565b60405161006b91906101a7565b60405180910390f35b5f5f5f90505b600b81121561010b575f5f9054906101000a900473ffffffffffffffffffffffffffffffffffffffff1673ffffffffffffffffffffffffffffffffffffffff16637291cdd56040518163ffffffff1660e01b81526004015f604051808303815f87803b1580156100e8575f5ffd5b505af11580156100fa573d5f5f3e3d5ffd5b50505050808060010191505061007a565b506001905090565b5f5f9054906101000a900473ffffffffffffffffffffffffffffffffffffffff1681565b5f819050919050565b61014981610137565b82525050565b5f6020820190506101625f830184610140565b92915050565b5f73ffffffffffffffffffffffffffffffffffffffff82169050919050565b5f61019182610168565b9050919050565b6101a181610187565b82525050565b5f6020820190506101ba5f830184610198565b9291505056fea2646970667358221220b39b0416fe22d1eb6b193fee30511ab512a45b237ad8d5c13305ca211858046864736f6c634300081c0033","linkReferences":{}},"methodIdentifiers":{"target()":"d4b83992","vote()":"632a9a52"},"id":0}