{"abi":[{"type":"function","name":"f","inputs":[{"name":"_uint64","type":"uint64","internalType":"uint64"},{"name":"_bool","type":"bool","internalType":"bool"},{"name":"_2dArray","type":"uint256[][]","internalType":"uint256[][]"},{"name":"_int256","type":"int256","internalType":"int256"},{"name":"_uint16","type":"uint16","internalType":"uint16"},{"name":"_bytes3","type":"bytes3","internalType":"bytes3"},{"name":"_uint256","type":"uint256","internalType":"uint256"},{"name":"_address","type":"address","internalType":"address"},{"name":"_uint32","type":"uint32","internalType":"uint32"},{"name":"_string","type":"string","internalType":"string"},{"name":"_uint128","type":"uint128","internalType":"uint128"},{"name":"_uint8","type":"uint8","internalType":"uint8"},{"name":"_array","type":"uint256[]","internalType":"uint256[]"}],"outputs":[],"stateMutability":"nonpayable"},{"type":"function","name":"solved","inputs":[],"outputs":[{"name":"","type":"uint256","internalType":"uint256"}],"stateMutability":"view"}],"bytecode":{"object":"0x60806040523461002757610011610574565b61001961002c565b6114fc6106ce82396114fc90f35b610032565b60405190565b5f80fd5b601f801991011690565b634e487b7160e01b5f52604160045260245ffd5b9061005e90610036565b810190811060018060401b0382111761007657604052565b610040565b9061008e61008761002c565b9283610054565b565b60018060401b0381116100a35760200290565b610040565b6100b46100b991610090565b61007b565b90565b90565b60ff1690565b90565b6100dc6100d76100e1926100bc565b6100c5565b6100bf565b90565b906100ee906100bf565b9052565b90565b61010961010461010e926100f2565b6100c5565b6100bf565b90565b90565b61012861012361012d92610111565b6100c5565b6100bf565b90565b90565b61014761014261014c92610130565b6100c5565b6100bf565b90565b90565b61016661016161016b9261014f565b6100c5565b6100bf565b90565b634e487b7160e01b5f525f60045260245ffd5b5490565b90565b600190818003010490565b5f5260205f2090565b1b90565b919060086101bb9102916101b55f198461019c565b9261019c565b9181191691161790565b6101d96101d46101de92610185565b6100c5565b610185565b90565b90565b91906101fa6101f5610202936101c5565b6101e1565b9083546101a0565b9055565b5f90565b61021c91610216610206565b916101e4565b565b5b81811061022a575050565b806102375f60019361020a565b0161021f565b909182811061024c575b505050565b61026a61026461025e61027595610188565b92610188565b92610193565b91820191019061021e565b5f8080610247565b906801000000000000000081116102a6578161029b6102a493610181565b9082815561023d565b565b610040565b50600590565b6102bb90516100bf565b90565b90565b6102ca826102ab565b9160018060401b03831161032b576102f66102f06001926102eb868661027d565b6102be565b92610193565b9204915f5b8381106103085750505050565b600190602061031e610319866102b1565b6101e1565b94019381840155016102fb565b610040565b9061033a916102c1565b565b60018060401b03811161034f5760200290565b610040565b6103606103659161033c565b61007b565b90565b60018060401b03811161037b5760200290565b610040565b61038c61039191610368565b61007b565b90565b52565b90565b6103ae6103a96103b392610397565b6100c5565b6100bf565b90565b90565b5490565b600190818003010490565b5f5260205f2090565b5f6103db9161027d565b565b905f036103ef576103ed906103d1565b565b61016e565b5b818110610400575050565b8061040d5f6001936103dd565b016103f5565b9091828110610422575b505050565b61044061043a61043461044b956103bd565b926103bd565b926103c8565b9182019101906103f4565b5f808061041d565b9068010000000000000000811161047c578161047161047a936103b9565b90828155610413565b565b610040565b50600390565b5190565b50600290565b90565b61049d8261048b565b9160018060401b0383116104fe576104c96104c36001926104be868661027d565b610491565b92610193565b9204915f5b8381106104db5750505050565b60019060206104f16104ec866102b1565b6101e1565b94019381840155016104ce565b610040565b9061050d91610494565b565b61053461052e61051e84610481565b936105298585610453565b6103b6565b916103c8565b5f915b8383106105445750505050565b600160208261055c6105568495610487565b86610503565b01920192019190610537565b906105729161050f565b565b6105f561058160056100a8565b61059661058e60016100c8565b5f83016100e4565b6105ac6105a360026100f5565b602083016100e4565b6105c26105b96003610114565b604083016100e4565b6105d86105cf6004610133565b606083016100e4565b6105ee6105e56005610152565b608083016100e4565b6001610330565b6106cb6106026003610354565b61064261060f6002610380565b61062461061c60016100c8565b5f83016100e4565b61063a61063160026100f5565b602083016100e4565b5f8301610394565b61068361064f6002610380565b61066461065c6003610114565b5f83016100e4565b61067a6106716004610133565b602083016100e4565b60208301610394565b6106c46106906002610380565b6106a561069d6005610152565b5f83016100e4565b6106bb6106b2600661039a565b602083016100e4565b60408301610394565b6002610568565b56fe60806040526004361015610013575b610649565b61001d5f3561003c565b8063799320bb1461003757637b887e600361000e57610606565b6100bf565b60e01c90565b60405190565b5f80fd5b5f80fd5b5f91031261005a57565b61004c565b1c90565b90565b61007690600861007b930261005f565b610063565b90565b906100899154610066565b90565b6100975f5f9061007e565b90565b90565b6100a69061009a565b9052565b91906100bd905f6020850194019061009d565b565b346100ef576100cf366004610050565b6100eb6100da61008c565b6100e2610042565b918291826100aa565b0390f35b610048565b5f80fd5b67ffffffffffffffff1690565b61010e816100f8565b0361011557565b5f80fd5b9050359061012682610105565b565b151590565b61013681610128565b0361013d57565b5f80fd5b9050359061014e8261012d565b565b5f80fd5b601f801991011690565b634e487b7160e01b5f52604160045260245ffd5b9061017c90610154565b810190811067ffffffffffffffff82111761019657604052565b61015e565b906101ae6101a7610042565b9283610172565b565b67ffffffffffffffff81116101c85760208091020190565b61015e565b5f80fd5b67ffffffffffffffff81116101e95760208091020190565b61015e565b6101f78161009a565b036101fe57565b5f80fd5b9050359061020f826101ee565b565b90929192610226610221826101d1565b61019b565b938185526020808601920283019281841161026357915b83831061024a5750505050565b602080916102588486610202565b81520192019161023d565b6101cd565b9080601f830112156102865781602061028393359101610211565b90565b610150565b92919061029f61029a826101b0565b61019b565b93818552602080860192028101918383116102f65781905b8382106102c5575050505050565b813567ffffffffffffffff81116102f1576020916102e68784938701610268565b8152019101906102b7565b610150565b6101cd565b9080601f83011215610319578160206103169335910161028b565b90565b610150565b90565b61032a8161031e565b0361033157565b5f80fd5b9050359061034282610321565b565b61ffff1690565b61035481610344565b0361035b57565b5f80fd5b9050359061036c8261034b565b565b62ffffff60e81b1690565b6103828161036e565b0361038957565b5f80fd5b9050359061039a82610379565b565b60018060a01b031690565b6103b09061039c565b90565b6103bc816103a7565b036103c357565b5f80fd5b905035906103d4826103b3565b565b63ffffffff1690565b6103e8816103d6565b036103ef57565b5f80fd5b90503590610400826103df565b565b5f80fd5b67ffffffffffffffff811161042457610420602091610154565b0190565b61015e565b90825f939282370152565b9092919261044961044482610406565b61019b565b938185526020850190828401116104655761046392610429565b565b610402565b9080601f830112156104885781602061048593359101610434565b90565b610150565b6fffffffffffffffffffffffffffffffff1690565b6104ab8161048d565b036104b257565b5f80fd5b905035906104c3826104a2565b565b60ff1690565b6104d4816104c5565b036104db57565b5f80fd5b905035906104ec826104cb565b565b906101a0828203126105fc57610506815f8401610119565b926105148260208501610141565b92604081013567ffffffffffffffff81116105f757836105359183016102fb565b926105438160608401610335565b92610551826080850161035f565b9261055f8360a0830161038d565b9261056d8160c08401610202565b9261057b8260e085016103c7565b9261058a8361010083016103f3565b9261012082013567ffffffffffffffff81116105f257816105ac91840161046a565b926105bb8261014085016104b6565b926105ca8361016083016104df565b9261018082013567ffffffffffffffff81116105ed576105ea9201610268565b90565b6100f4565b6100f4565b6100f4565b61004c565b5f0190565b346106445761062e6106193660046104ee565b9b9a909a999199989298979397969496610ede565b610636610042565b8061064081610601565b0390f35b610048565b5f80fd5b63ffffffff90565b60209181520190565b5f7f3100000000000000000000000000000000000000000000000000000000000000910152565b6106926001602092610655565b61069b8161065e565b0190565b6106b49060208101905f818303910152610685565b90565b600160ff1b90565b5f7f3200000000000000000000000000000000000000000000000000000000000000910152565b6106f36001602092610655565b6106fc816106bf565b0190565b6107159060208101905f8183039101526106e6565b90565b600190565b5f7f3300000000000000000000000000000000000000000000000000000000000000910152565b6107516001602092610655565b61075a8161071d565b0190565b6107739060208101905f818303910152610744565b90565b61ffff90565b5f7f3400000000000000000000000000000000000000000000000000000000000000910152565b6107b06001602092610655565b6107b98161077c565b0190565b6107d29060208101905f8183039101526107a3565b90565b5190565b905090565b90825f9392825e0152565b61080e610805926020926107fc816107d5565b948580936107d9565b938491016107de565b0190565b61081b916107e9565b90565b60200190565b5190565b9061083a61083583610406565b61019b565b918252565b5f7f48656c6c6f000000000000000000000000000000000000000000000000000000910152565b6108706005610828565b9061087d6020830161083f565b565b610887610866565b90565b61089261087f565b90565b90565b5f7f3500000000000000000000000000000000000000000000000000000000000000910152565b6108cc6001602092610655565b6108d581610898565b0190565b6108ee9060208101905f8183039101526108bf565b90565b67ffffffffffffffff90565b5f7f3600000000000000000000000000000000000000000000000000000000000000910152565b6109316001602092610655565b61093a816108fd565b0190565b6109539060208101905f818303910152610924565b90565b73123456789012345678901234567890123456789090565b5f7f3700000000000000000000000000000000000000000000000000000000000000910152565b6109a26001602092610655565b6109ab8161096e565b0190565b6109c49060208101905f818303910152610995565b90565b90565b90565b6109e16109dc6109e6926109c7565b6109ca565b6104c5565b90565b6109f360ff6109cd565b90565b5f7f3800000000000000000000000000000000000000000000000000000000000000910152565b610a2a6001602092610655565b610a33816109f6565b0190565b610a4c9060208101905f818303910152610a1d565b90565b90565b60e81b90565b610a6c610a67610a7192610a4f565b610a52565b61036e565b90565b610a8062414243610a58565b90565b5f7f3900000000000000000000000000000000000000000000000000000000000000910152565b610ab76001602092610655565b610ac081610a83565b0190565b610ad99060208101905f818303910152610aaa565b90565b6fffffffffffffffffffffffffffffffff90565b5f7f3130000000000000000000000000000000000000000000000000000000000000910152565b610b246002602092610655565b610b2d81610af0565b0190565b610b469060208101905f818303910152610b17565b90565b5f1990565b5f7f3131000000000000000000000000000000000000000000000000000000000000910152565b610b826002602092610655565b610b8b81610b4e565b0190565b610ba49060208101905f818303910152610b75565b90565b5190565b5490565b5f7f3132000000000000000000000000000000000000000000000000000000000000910152565b610be36002602092610655565b610bec81610baf565b0190565b610c059060208101905f818303910152610bd6565b90565b90565b610c1f610c1a610c2492610c08565b6109ca565b61009a565b90565b6001610c33910161009a565b90565b634e487b7160e01b5f52603260045260245ffd5b90610c5482610ba7565b811015610c65576020809102010190565b610c36565b610c74905161009a565b90565b5f5260205f2090565b610c8981610bab565b821015610ca357610c9b600191610c77565b910201905f90565b610c36565b5f7f3133000000000000000000000000000000000000000000000000000000000000910152565b610cdc6002602092610655565b610ce581610ca8565b0190565b610cfe9060208101905f818303910152610ccf565b90565b5190565b5490565b5f7f3134000000000000000000000000000000000000000000000000000000000000910152565b610d3d6002602092610655565b610d4681610d09565b0190565b610d5f9060208101905f818303910152610d30565b90565b90610d6c82610d01565b811015610d7d576020809102010190565b610c36565b5f5260205f2090565b610d9481610d05565b821015610dae57610da6600191610d82565b910201905f90565b610c36565b5f7f3135000000000000000000000000000000000000000000000000000000000000910152565b610de76002602092610655565b610df081610db3565b0190565b610e099060208101905f818303910152610dda565b90565b5f7f3136000000000000000000000000000000000000000000000000000000000000910152565b610e406002602092610655565b610e4981610e0c565b0190565b610e629060208101905f818303910152610e33565b90565b90565b610e7c610e77610e8192610e65565b6109ca565b61009a565b90565b5f1b90565b90610e955f1991610e84565b9181191691161790565b610eb3610eae610eb89261009a565b6109ca565b61009a565b90565b90565b90610ed3610ece610eda92610e9f565b610ebb565b8254610e89565b9055565b94979a96959998939290919a610f03610efd610ef861064d565b6103d6565b916103d6565b036114a457610f21610f1b610f166106b7565b61031e565b9161031e565b0361148257610f3f610f39610f34610718565b610128565b91610128565b0361146057610f5d610f57610f52610776565b610344565b91610344565b0361143e57610f8c610f7d91610f71610042565b92839160208301610812565b60208201810382520382610172565b610f9e610f9882610824565b9161081e565b20610ff4610fee610fc7610fd6610fb361088a565b610fbb610042565b92839160208301610812565b60208201810382520382610172565b610fe8610fe282610824565b9161081e565b20610895565b91610895565b0361141c5761101261100c6110076108f1565b6100f8565b916100f8565b036113fa5761103061102a611025610956565b6103a7565b916103a7565b036113d85761104e6110486110436109e9565b6104c5565b916104c5565b036113b65761106c611066611061610a74565b61036e565b9161036e565b036113945761108a61108461107f610adc565b61048d565b9161048d565b03611372576110a86110a261109d610b49565b61009a565b9161009a565b03611350576110b682610ba7565b6110d16110cb6110c66001610bab565b61009a565b9161009a565b0361132e576110df5f610c0b565b5b806110fb6110f56110f086610ba7565b61009a565b9161009a565b101561116f5761111461110f848390610c4a565b610c6a565b61113a61113461112f61112960018690610c80565b9061007e565b61009a565b9161009a565b0361114d5761114890610c27565b6110e0565b611155610042565b62461bcd60e51b81528061116b60048201610ce9565b0390fd5b5091905061117c82610d01565b61119761119161118c6002610d05565b61009a565b9161009a565b0361130c576111a55f610c0b565b905b816111c26111bc6111b786610d01565b61009a565b9161009a565b10156112f4576111dc6111d6848490610d62565b51610ba7565b6112026111fc6111f76111f160028790610d8b565b50610bab565b61009a565b9161009a565b036112d2576112105f610c0b565b5b8061123761123161122c611226888890610d62565b51610ba7565b61009a565b9161009a565b10156112c15761125b61125661124e868690610d62565b518390610c4a565b610c6a565b61128c61128661128161127b61127360028990610d8b565b508690610c80565b9061007e565b61009a565b9161009a565b0361129f5761129a90610c27565b611211565b6112a7610042565b62461bcd60e51b8152806112bd60048201610e4d565b0390fd5b50906112cc90610c27565b906111a7565b6112da610042565b62461bcd60e51b8152806112f060048201610df4565b0390fd5b91505061130a6113046001610e68565b5f610ebe565b565b611314610042565b62461bcd60e51b81528061132a60048201610d4a565b0390fd5b611336610042565b62461bcd60e51b81528061134c60048201610bf0565b0390fd5b611358610042565b62461bcd60e51b81528061136e60048201610b8f565b0390fd5b61137a610042565b62461bcd60e51b81528061139060048201610b31565b0390fd5b61139c610042565b62461bcd60e51b8152806113b260048201610ac4565b0390fd5b6113be610042565b62461bcd60e51b8152806113d460048201610a37565b0390fd5b6113e0610042565b62461bcd60e51b8152806113f6600482016109af565b0390fd5b611402610042565b62461bcd60e51b8152806114186004820161093e565b0390fd5b611424610042565b62461bcd60e51b81528061143a600482016108d9565b0390fd5b611446610042565b62461bcd60e51b81528061145c600482016107bd565b0390fd5b611468610042565b62461bcd60e51b81528061147e6004820161075e565b0390fd5b61148a610042565b62461bcd60e51b8152806114a060048201610700565b0390fd5b6114ac610042565b62461bcd60e51b8152806114c26004820161069f565b0390fdfea26469706673582212200053b79d2bdf0ff94bfe322be95fd7354962c1d8f45f92830d815984bde6f60e64736f6c634300081c0033","linkReferences":{}},"methodIdentifiers":{"f(uint64,bool,uint256[][],int256,uint16,bytes3,uint256,address,uint32,string,uint128,uint8,uint256[])":"7b887e60","solved()":"799320bb"},"id":0}