{"abi":[{"type":"constructor","inputs":[{"name":"_target","type":"address","internalType":"address"}],"stateMutability":"nonpayable"},{"type":"function","name":"target","inputs":[],"outputs":[{"name":"","type":"address","internalType":"address"}],"stateMutability":"view"},{"type":"function","name":"vote","inputs":[],"outputs":[{"name":"","type":"uint256","internalType":"uint256"}],"stateMutability":"nonpayable"}],"bytecode":{"object":"0x608060405234801561000f575f5ffd5b50604051610307380380610307833981810160405281019061003191906100d4565b805f5f6101000a81548173ffffffffffffffffffffffffffffffffffffffff021916908373ffffffffffffffffffffffffffffffffffffffff160217905550506100ff565b5f5ffd5b5f73ffffffffffffffffffffffffffffffffffffffff82169050919050565b5f6100a38261007a565b9050919050565b6100b381610099565b81146100bd575f5ffd5b50565b5f815190506100ce816100aa565b92915050565b5f602082840312156100e9576100e8610076565b5b5f6100f6848285016100c0565b91505092915050565b6101fb8061010c5f395ff3fe608060405234801561000f575f5ffd5b5060043610610034575f3560e01c8063632a9a5214610038578063d4b8399214610056575b5f5ffd5b610040610074565b60405161004d9190610154565b60405180910390f35b61005e610118565b60405161006b91906101ac565b60405180910390f35b5f5f600190505f5f90505b600c811215610110575f5f9054906101000a900473ffffffffffffffffffffffffffffffffffffffff1673ffffffffffffffffffffffffffffffffffffffff16637291cdd56040518163ffffffff1660e01b81526004015f604051808303815f87803b1580156100ed575f5ffd5b505af11580156100ff573d5f5f3e3d5ffd5b50505050808060010191505061007f565b508091505090565b5f5f9054906101000a900473ffffffffffffffffffffffffffffffffffffffff1681565b5f819050919050565b61014e8161013c565b82525050565b5f6020820190506101675f830184610145565b92915050565b5f73ffffffffffffffffffffffffffffffffffffffff82169050919050565b5f6101968261016d565b9050919050565b6101a68161018c565b82525050565b5f6020820190506101bf5f83018461019d565b9291505056fea264697066735822122001134134da596c9536f75dbd30e85974a80ae22bbfd37095c7936faf74f4592364736f6c634300081c0033","linkReferences":{}},"methodIdentifiers":{"target()":"d4b83992","vote()":"632a9a52"},"id":0}