{"abi":[{"type":"constructor","inputs":[{"name":"_secret","type":"bytes1","internalType":"bytes1"}],"stateMutability":"nonpayable"},{"type":"function","name":"prove","inputs":[{"name":"answer","type":"uint256","internalType":"uint256"}],"outputs":[],"stateMutability":"nonpayable"},{"type":"function","name":"solved","inputs":[],"outputs":[{"name":"","type":"uint256","internalType":"uint256"}],"stateMutability":"view"},{"type":"function","name":"submitSolver","inputs":[{"name":"_solver","type":"address","internalType":"address"}],"outputs":[],"stateMutability":"nonpayable"}],"bytecode":{"object":"0x608060405234801561000f575f5ffd5b506040516103a83803806103a8833981810160405281019061003191906100dc565b8060f81c60ff16600181905550335f5f6101000a81548173ffffffffffffffffffffffffffffffffffffffff021916908373ffffffffffffffffffffffffffffffffffffffff16021790555050610107565b5f5ffd5b5f7fff0000000000000000000000000000000000000000000000000000000000000082169050919050565b6100bb81610087565b81146100c5575f5ffd5b50565b5f815190506100d6816100b2565b92915050565b5f602082840312156100f1576100f0610083565b5b5f6100fe848285016100c8565b91505092915050565b610294806101145f395ff3fe608060405234801561000f575f5ffd5b506004361061003f575f3560e01c806354d00cc2146100435780635dfd7a571461005f578063799320bb1461007b575b5f5ffd5b61005d600480360381019061005891906101ad565b610099565b005b6100796004803603810190610074919061020b565b6100dc565b005b610083610149565b6040516100909190610245565b60405180910390f35b8060035f6101000a81548173ffffffffffffffffffffffffffffffffffffffff021916908373ffffffffffffffffffffffffffffffffffffffff16021790555050565b60035f9054906101000a900473ffffffffffffffffffffffffffffffffffffffff1673ffffffffffffffffffffffffffffffffffffffff163373ffffffffffffffffffffffffffffffffffffffff1614610134575f5ffd5b60015481036101465760016002819055505b50565b60025481565b5f5ffd5b5f73ffffffffffffffffffffffffffffffffffffffff82169050919050565b5f61017c82610153565b9050919050565b61018c81610172565b8114610196575f5ffd5b50565b5f813590506101a781610183565b92915050565b5f602082840312156101c2576101c161014f565b5b5f6101cf84828501610199565b91505092915050565b5f819050919050565b6101ea816101d8565b81146101f4575f5ffd5b50565b5f81359050610205816101e1565b92915050565b5f602082840312156102205761021f61014f565b5b5f61022d848285016101f7565b91505092915050565b61023f816101d8565b82525050565b5f6020820190506102585f830184610236565b9291505056fea2646970667358221220ac241d595998f86078eda6300af468ce8a2a09e3fe7381c922d79df81760ce8164736f6c634300081c0033","linkReferences":{}},"methodIdentifiers":{"prove(uint256)":"5dfd7a57","solved()":"799320bb","submitSolver(address)":"54d00cc2"},"id":0}