{"abi":[{"type":"constructor","inputs":[{"name":"_prover","type":"address","internalType":"address"}],"stateMutability":"nonpayable"},{"type":"function","name":"solve","inputs":[],"outputs":[],"stateMutability":"nonpayable"}],"bytecode":{"object":"0x608060405234801561000f575f5ffd5b5060405161039a38038061039a833981810160405281019061003191906100d4565b805f5f6101000a81548173ffffffffffffffffffffffffffffffffffffffff021916908373ffffffffffffffffffffffffffffffffffffffff160217905550506100ff565b5f5ffd5b5f73ffffffffffffffffffffffffffffffffffffffff82169050919050565b5f6100a38261007a565b9050919050565b6100b381610099565b81146100bd575f5ffd5b50565b5f815190506100ce816100aa565b92915050565b5f602082840312156100e9576100e8610076565b5b5f6100f6848285016100c0565b91505092915050565b61028e8061010c5f395ff3fe608060405234801561000f575f5ffd5b5060043610610029575f3560e01c8063890d69081461002d575b5f5ffd5b610035610037565b005b5f5f9054906101000a900473ffffffffffffffffffffffffffffffffffffffff1673ffffffffffffffffffffffffffffffffffffffff166354d00cc2336040518263ffffffff1660e01b815260040161009091906101ad565b5f604051808303815f87803b1580156100a7575f5ffd5b505af11580156100b9573d5f5f3e3d5ffd5b505050505f5f90505b60ff80168160ff161161016b575f5f9054906101000a900473ffffffffffffffffffffffffffffffffffffffff1673ffffffffffffffffffffffffffffffffffffffff16635dfd7a578260ff166040518263ffffffff1660e01b815260040161012b91906101de565b5f604051808303815f87803b158015610142575f5ffd5b505af1158015610154573d5f5f3e3d5ffd5b50505050808061016390610230565b9150506100c2565b50565b5f73ffffffffffffffffffffffffffffffffffffffff82169050919050565b5f6101978261016e565b9050919050565b6101a78161018d565b82525050565b5f6020820190506101c05f83018461019e565b92915050565b5f819050919050565b6101d8816101c6565b82525050565b5f6020820190506101f15f8301846101cf565b92915050565b7f4e487b71000000000000000000000000000000000000000000000000000000005f52601160045260245ffd5b5f60ff82169050919050565b5f61023a82610224565b915060ff820361024d5761024c6101f7565b5b60018201905091905056fea264697066735822122013e19744bd4fe86ee32cf1433096e04597327fdbc78a508baf357609bb331fd164736f6c634300081c0033","linkReferences":{}},"methodIdentifiers":{"solve()":"890d6908"},"id":1}