{"abi":[{"type":"constructor","inputs":[{"name":"_prover","type":"address","internalType":"address"}],"stateMutability":"nonpayable"},{"type":"function","name":"solve","inputs":[],"outputs":[],"stateMutability":"nonpayable"},{"type":"function","name":"submitSolver","inputs":[],"outputs":[],"stateMutability":"nonpayable"}],"bytecode":{"object":"0x608060405234801561000f575f5ffd5b506040516103b13803806103b1833981810160405281019061003191906100d4565b805f5f6101000a81548173ffffffffffffffffffffffffffffffffffffffff021916908373ffffffffffffffffffffffffffffffffffffffff160217905550506100ff565b5f5ffd5b5f73ffffffffffffffffffffffffffffffffffffffff82169050919050565b5f6100a38261007a565b9050919050565b6100b381610099565b81146100bd575f5ffd5b50565b5f815190506100ce816100aa565b92915050565b5f602082840312156100e9576100e8610076565b5b5f6100f6848285016100c0565b91505092915050565b6102a58061010c5f395ff3fe608060405234801561000f575f5ffd5b5060043610610034575f3560e01c8063890d690814610038578063c90dab1314610042575b5f5ffd5b61004061004c565b005b61004a6100fd565b005b5f5f90505b6101008160ff1610156100fa575f5f9054906101000a900473ffffffffffffffffffffffffffffffffffffffff1673ffffffffffffffffffffffffffffffffffffffff16635dfd7a578260ff166040518263ffffffff1660e01b81526004016100ba919061019d565b5f604051808303815f87803b1580156100d1575f5ffd5b505af11580156100e3573d5f5f3e3d5ffd5b5050505080806100f2906101ef565b915050610051565b50565b5f5f9054906101000a900473ffffffffffffffffffffffffffffffffffffffff1673ffffffffffffffffffffffffffffffffffffffff166354d00cc2306040518263ffffffff1660e01b81526004016101569190610256565b5f604051808303815f87803b15801561016d575f5ffd5b505af115801561017f573d5f5f3e3d5ffd5b50505050565b5f819050919050565b61019781610185565b82525050565b5f6020820190506101b05f83018461018e565b92915050565b7f4e487b71000000000000000000000000000000000000000000000000000000005f52601160045260245ffd5b5f60ff82169050919050565b5f6101f9826101e3565b915060ff820361020c5761020b6101b6565b5b600182019050919050565b5f73ffffffffffffffffffffffffffffffffffffffff82169050919050565b5f61024082610217565b9050919050565b61025081610236565b82525050565b5f6020820190506102695f830184610247565b9291505056fea2646970667358221220d05456b73c653ce7c38a0184d3abb68154336964293206f09a0eb25595f5778164736f6c634300081c0033","linkReferences":{}},"methodIdentifiers":{"solve()":"890d6908","submitSolver()":"c90dab13"},"id":1}