{"abi":[{"type":"constructor","inputs":[{"name":"_prover","type":"address","internalType":"address"}],"stateMutability":"nonpayable"},{"type":"function","name":"solve","inputs":[],"outputs":[],"stateMutability":"nonpayable"},{"type":"function","name":"submitSolver","inputs":[],"outputs":[],"stateMutability":"nonpayable"}],"bytecode":{"object":"0x608060405234801561000f575f5ffd5b506040516103af3803806103af833981810160405281019061003191906100d4565b805f5f6101000a81548173ffffffffffffffffffffffffffffffffffffffff021916908373ffffffffffffffffffffffffffffffffffffffff160217905550506100ff565b5f5ffd5b5f73ffffffffffffffffffffffffffffffffffffffff82169050919050565b5f6100a38261007a565b9050919050565b6100b381610099565b81146100bd575f5ffd5b50565b5f815190506100ce816100aa565b92915050565b5f602082840312156100e9576100e8610076565b5b5f6100f6848285016100c0565b91505092915050565b6102a38061010c5f395ff3fe608060405234801561000f575f5ffd5b5060043610610034575f3560e01c8063890d690814610038578063c90dab1314610042575b5f5ffd5b61004061004c565b005b61004a6100fb565b005b5f5f90505b60ff8160ff16116100f8575f5f9054906101000a900473ffffffffffffffffffffffffffffffffffffffff1673ffffffffffffffffffffffffffffffffffffffff1663ea99c2a68260ff166040518263ffffffff1660e01b81526004016100b8919061019b565b5f604051808303815f87803b1580156100cf575f5ffd5b505af11580156100e1573d5f5f3e3d5ffd5b5050505080806100f0906101ed565b915050610051565b50565b5f5f9054906101000a900473ffffffffffffffffffffffffffffffffffffffff1673ffffffffffffffffffffffffffffffffffffffff166354d00cc2336040518263ffffffff1660e01b81526004016101549190610254565b5f604051808303815f87803b15801561016b575f5ffd5b505af115801561017d573d5f5f3e3d5ffd5b50505050565b5f819050919050565b61019581610183565b82525050565b5f6020820190506101ae5f83018461018c565b92915050565b7f4e487b71000000000000000000000000000000000000000000000000000000005f52601160045260245ffd5b5f60ff82169050919050565b5f6101f7826101e1565b915060ff820361020a576102096101b4565b5b600182019050919050565b5f73ffffffffffffffffffffffffffffffffffffffff82169050919050565b5f61023e82610215565b9050919050565b61024e81610234565b82525050565b5f6020820190506102675f830184610245565b9291505056fea2646970667358221220001ed3e08c7c0661cd00463f6fed499fd83bbfe697fe50a6ee6e1f1bce31810a64736f6c634300081c0033","linkReferences":{}},"methodIdentifiers":{"solve()":"890d6908","submitSolver()":"c90dab13"},"id":1}