{"abi":[{"type":"function","name":"getContractAddress","inputs":[],"outputs":[{"name":"","type":"address","internalType":"address"}],"stateMutability":"view"}],"bytecode":{"object":"0x6080604052348015600e575f5ffd5b50607380601a5f395ff3fe6080604052348015600e575f5ffd5b50600436106026575f3560e01c806332a2c5d014602a575b5f5ffd5b6040805130815290519081900360200190f3fea264697066735822122021ee3d95c3610e4c735584e6d585f2ad5b0a85300a470b8657803b22eb4f552a64736f6c634300081c0033","linkReferences":{}},"methodIdentifiers":{"getContractAddress()":"32a2c5d0"},"id":0}