{"abi":[{"type":"constructor","inputs":[{"name":"_challenge","type":"address","internalType":"address"}],"stateMutability":"nonpayable"},{"type":"function","name":"challenge","inputs":[],"outputs":[{"name":"","type":"address","internalType":"contract Challenge"}],"stateMutability":"view"},{"type":"function","name":"solve","inputs":[],"outputs":[],"stateMutability":"nonpayable"}],"bytecode":{"object":"0x60806040523461002f576100196100146100f4565b61019b565b610021610034565b610bd06101b08239610bd090f35b61003a565b60405190565b5f80fd5b601f801991011690565b634e487b7160e01b5f52604160045260245ffd5b906100669061003e565b810190811060018060401b0382111761007e57604052565b610048565b9061009661008f610034565b928361005c565b565b5f80fd5b60018060a01b031690565b6100b09061009c565b90565b6100bc816100a7565b036100c357565b5f80fd5b905051906100d4826100b3565b565b906020828203126100ef576100ec915f016100c7565b90565b610098565b610112610d808038038061010781610083565b9283398101906100d6565b90565b90565b61012c6101276101319261009c565b610115565b61009c565b90565b61013d90610118565b90565b61014990610134565b90565b5f1b90565b9061016260018060a01b039161014c565b9181191691161790565b61017590610134565b90565b90565b9061019061018b6101979261016c565b610178565b8254610151565b9055565b6101a76101ad91610140565b5f61017b565b56fe60806040526004361015610013575b610173565b61001d5f3561003c565b8063890d6908146100375763d2ef73980361000e5761013e565b610064565b60e01c90565b60405190565b5f80fd5b5f80fd5b5f91031261005a57565b61004c565b5f0190565b3461009257610074366004610050565b61007c6107c7565b610084610042565b8061008e8161005f565b0390f35b610048565b1c90565b60018060a01b031690565b6100b69060086100bb9302610097565b61009b565b90565b906100c991546100a6565b90565b6100d75f5f906100be565b90565b60018060a01b031690565b90565b6100fc6100f7610101926100da565b6100e5565b6100da565b90565b61010d906100e8565b90565b61011990610104565b90565b61012590610110565b9052565b919061013c905f6020850194019061011c565b565b3461016e5761014e366004610050565b61016a6101596100cc565b610161610042565b91829182610129565b0390f35b610048565b5f80fd5b90565b90565b61019161018c61019692610177565b6100e5565b61017a565b90565b601f801991011690565b634e487b7160e01b5f52604160045260245ffd5b906101c190610199565b810190811067ffffffffffffffff8211176101db57604052565b6101a3565b906101f36101ec610042565b92836101b7565b565b67ffffffffffffffff811161020d5760208091020190565b6101a3565b9061022461021f836101f5565b6101e0565b918252565b369037565b9061025361023b83610212565b9260208061024986936101f5565b9201910390610229565b565b90565b61026c61026761027192610255565b6100e5565b61017a565b90565b634e487b7160e01b5f52603260045260245ffd5b5190565b9061029682610288565b8110156102a7576020809102010190565b610274565b90565b6102c36102be6102c8926102ac565b6100e5565b61017a565b90565b906102d59061017a565b9052565b90565b6102f06102eb6102f5926102d9565b6100e5565b61017a565b90565b90565b61030f61030a610314926102f8565b6100e5565b61017a565b90565b90565b61032e61032961033392610317565b6100e5565b61017a565b90565b67ffffffffffffffff811161034e5760208091020190565b6101a3565b9061036561036083610336565b6101e0565b918252565b606090565b5f5b82811061037d57505050565b60209061038861036a565b8184015201610371565b906103b761039f83610353565b926020806103ad8693610336565b920191039061036f565b565b5190565b906103c7826103b9565b8110156103d8576020809102010190565b610274565b90565b6103f46103ef6103f9926103dd565b6100e5565b61017a565b90565b5f1c90565b61040d610412916103fc565b61009b565b90565b61041f9054610401565b90565b90565b62ffffff60e81b1690565b60e81b90565b61044a61044561044f92610422565b610430565b610425565b90565b5f80fd5b60e01b90565b5f91031261046657565b61004c565b67ffffffffffffffff1690565b6104819061046b565b9052565b151590565b61049390610485565b9052565b60209181520190565b60200190565b60209181520190565b60200190565b6104be9061017a565b9052565b906104cf816020936104b5565b0190565b60200190565b906104f66104f06104e984610288565b80936104a6565b926104af565b905f5b8181106105065750505090565b90919261051f61051960019286516104c2565b946104d3565b91019190916104f9565b90610533916104d9565b90565b60200190565b90610550610549836103b9565b8092610497565b9081610561602083028401946104a0565b925f915b83831061057457505050505090565b9091929394602061059661059083856001950387528951610529565b97610536565b9301930191939290610565565b90565b6105af906105a3565b9052565b61ffff1690565b6105c3906105b3565b9052565b6105d090610425565b9052565b6105dd9061017a565b9052565b6105ea906100da565b90565b6105f6906105e1565b9052565b63ffffffff1690565b61060c906105fa565b9052565b60209181520190565b5f7f48656c6c6f000000000000000000000000000000000000000000000000000000910152565b61064d6005602092610610565b61065681610619565b0190565b6fffffffffffffffffffffffffffffffff1690565b6106789061065a565b9052565b60ff1690565b61068b9061067c565b9052565b60209181520190565b906106b56106af6106a884610288565b809361068f565b926104af565b905f5b8181106106c55750505090565b9091926106de6106d860019286516104c2565b946104d3565b91019190916106b8565b98919761076c6107b49d9b9c9861076261079b9960a08e61075b6107a69f9c61075161074661078f9f9b6107819e6107396107769e61072f6101a08a01945f8b0190610478565b602089019061048a565b868203604088015261053c565b9d60608501906105a6565b60808301906105ba565b01906105c7565b60c08c01906105d4565b60e08a01906105ed565b610100880190610603565b858103610120870152610640565b9561014085019061066f565b610160830190610682565b610180818403910152610698565b90565b6107bf610042565b3d5f823e3d90fd5b6107d96107d4600561017d565b61022e565b6107fe6107e66001610258565b6107f9836107f35f6102af565b9061028c565b6102cb565b61082461080b60026102dc565b61081f836108196001610258565b9061028c565b6102cb565b61084a61083160036102fb565b6108458361083f60026102dc565b9061028c565b6102cb565b610870610857600461031a565b61086b8361086560036102fb565b9061028c565b6102cb565b61089661087d600561017d565b6108918361088b600461031a565b9061028c565b6102cb565b6108a86108a360036102fb565b610392565b6108e26108bd6108b860026102dc565b61022e565b6108dc83915f906108d66108d0836102af565b856103bd565b526102af565b906103bd565b515061091c6108f16001610258565b610917610907846109015f6102af565b906103bd565b516109115f6102af565b9061028c565b6102cb565b61095561092960026102dc565b61095061093f846109395f6102af565b906103bd565b5161094a6001610258565b9061028c565b6102cb565b61099061096a61096560026102dc565b61022e565b61098a839160019061098461097e83610258565b856103bd565b52610258565b906103bd565b51506109cb61099f60036102fb565b6109c66109b6846109b06001610258565b906103bd565b516109c05f6102af565b9061028c565b6102cb565b610a056109d8600461031a565b610a006109ef846109e96001610258565b906103bd565b516109fa6001610258565b9061028c565b6102cb565b610a40610a1a610a1560026102dc565b61022e565b610a3a8391600290610a34610a2e836102dc565b856103bd565b526102dc565b906103bd565b5150610a7b610a4f600561017d565b610a76610a6684610a6060026102dc565b906103bd565b51610a705f6102af565b9061028c565b6102cb565b610ab5610a8860066103e0565b610ab0610a9f84610a9960026102dc565b906103bd565b51610aaa6001610258565b9061028c565b6102cb565b610ac6610ac15f610415565b610110565b90637b887e6067ffffffffffffffff60019294600160ff1b9061ffff610aee62414243610436565b5f197312345678901234567890123456789012345678909063ffffffff926fffffffffffffffffffffffffffffffff9460ff96978c3b15610b9557610b31610042565b9d8e9c610b3e8e9d610456565b8d5260048d019b610b4e9c6106e8565b03815a5f948591f18015610b9057610b64575b50565b610b83905f3d8111610b89575b610b7b81836101b7565b81019061045c565b5f610b61565b503d610b71565b6107b7565b61045256fea264697066735822122073e58774bbf44057cf974054536054dbd10a3eda252c80073eb4f7664364609a64736f6c634300081c0033","linkReferences":{}},"methodIdentifiers":{"challenge()":"d2ef7398","solve()":"890d6908"},"id":1}