{"abi":[{"type":"constructor","inputs":[{"name":"_proxy","type":"address","internalType":"address"},{"name":"_target","type":"address","internalType":"address"}],"stateMutability":"nonpayable"},{"type":"function","name":"claim","inputs":[],"outputs":[],"stateMutability":"nonpayable"},{"type":"function","name":"dummy","inputs":[],"outputs":[{"name":"","type":"address","internalType":"address"}],"stateMutability":"view"},{"type":"function","name":"proxy","inputs":[],"outputs":[{"name":"","type":"address","internalType":"address"}],"stateMutability":"view"},{"type":"function","name":"solve","inputs":[],"outputs":[],"stateMutability":"payable"},{"type":"function","name":"vuln","inputs":[],"outputs":[{"name":"","type":"address","internalType":"address"}],"stateMutability":"view"}],"bytecode":{"object":"0x60a0604052346100395761001a61001461010d565b906101a9565b61002261003e565b61052f6101ba8239608051816102ac015261052f90f35b610044565b60405190565b5f80fd5b601f801991011690565b634e487b7160e01b5f52604160045260245ffd5b9061007090610048565b810190811060018060401b0382111761008857604052565b610052565b906100a061009961003e565b9283610066565b565b5f80fd5b60018060a01b031690565b6100ba906100a6565b90565b6100c6816100b1565b036100cd57565b5f80fd5b905051906100de826100bd565b565b919060408382031261010857806100fc610105925f86016100d1565b936020016100d1565b90565b6100a2565b61012b6106e9803803806101208161008d565b9283398101906100e0565b9091565b5f1b90565b9061014560018060a01b039161012f565b9181191691161790565b90565b61016661016161016b926100a6565b61014f565b6100a6565b90565b61017790610152565b90565b6101839061016e565b90565b90565b9061019e6101996101a59261017a565b610186565b8254610134565b9055565b6101b4906002610189565b60805256fe60806040526004361015610013575b610229565b61001d5f3561006c565b806332e43a11146100675780634e71d92d14610062578063890d69081461005d578063e60edac4146100585763ec5568890361000e576101f4565b6101b0565b610179565b610146565b61010c565b60e01c90565b60405190565b5f80fd5b5f80fd5b5f91031261008a57565b61007c565b1c90565b60018060a01b031690565b6100ae9060086100b3930261008f565b610093565b90565b906100c1915461009e565b90565b6100d060015f906100b6565b90565b60018060a01b031690565b6100e7906100d3565b90565b6100f3906100de565b9052565b919061010a905f602085019401906100ea565b565b3461013c5761011c366004610080565b6101386101276100c4565b61012f610072565b918291826100f7565b0390f35b610078565b5f0190565b3461017457610156366004610080565b61015e6102a7565b610166610072565b8061017081610141565b0390f35b610078565b610184366004610080565b61018c610495565b610194610072565b8061019e81610141565b0390f35b6101ad5f5f906100b6565b90565b346101e0576101c0366004610080565b6101dc6101cb6101a2565b6101d3610072565b918291826100f7565b0390f35b610078565b6101f160025f906100b6565b90565b3461022457610204366004610080565b61022061020f6101e5565b610217610072565b918291826100f7565b0390f35b610078565b5f80fd5b5f1b90565b9061024360018060a01b039161022d565b9181191691161790565b90565b61026461025f610269926100d3565b61024d565b6100d3565b90565b61027590610250565b90565b6102819061026c565b90565b90565b9061029c6102976102a392610278565b610284565b8254610232565b9055565b6102d17f00000000000000000000000000000000000000000000000000000000000000005f610287565b565b5f90565b5f1c90565b6102e86102ed916102d7565b610093565b90565b6102fa90546102dc565b90565b61030690610250565b90565b610312906102fd565b90565b61031e9061026c565b90565b905090565b6103315f8092610321565b0190565b61033e90610326565b90565b601f801991011690565b634e487b7160e01b5f52604160045260245ffd5b9061036990610341565b810190811067ffffffffffffffff82111761038357604052565b61034b565b9061039b610394610072565b928361035f565b565b67ffffffffffffffff81116103bb576103b7602091610341565b0190565b61034b565b906103d26103cd8361039d565b610388565b918252565b606090565b3d5f146103f7576103ec3d6103c0565b903d5f602084013e5b565b6103ff6103d7565b906103f5565b151590565b60209181520190565b5f7f5472616e7366657220746f20726563656976652829206661696c65642e2e2e00910152565b610447601f60209261040a565b61045081610413565b0190565b6104699060208101905f81830391015261043a565b90565b1561047357565b61047b610072565b62461bcd60e51b81528061049160048201610454565b0390fd5b61049d6102d3565b506104f75f806104bd6104b86104b360026102f0565b610309565b610315565b346104c6610072565b90816104d181610335565b03925af16104dd6103dc565b506104f16104eb6001610405565b91610405565b1461046c565b56fea2646970667358221220bc3b5569842adb91046da00962f77db9e9123337d32402bcfbaecc2912f683e464736f6c634300081c0033","linkReferences":{}},"methodIdentifiers":{"claim()":"4e71d92d","dummy()":"32e43a11","proxy()":"ec556889","solve()":"890d6908","vuln()":"e60edac4"},"id":0}