{"abi":[{"type":"constructor","inputs":[{"name":"_target","type":"address","internalType":"address"}],"stateMutability":"nonpayable"},{"type":"function","name":"attack","inputs":[],"outputs":[],"stateMutability":"nonpayable"}],"bytecode":{"object":"0x60806040523461002f576100196100146100f4565b61018f565b610021610034565b61025161019c823961025190f35b61003a565b60405190565b5f80fd5b601f801991011690565b634e487b7160e01b5f52604160045260245ffd5b906100669061003e565b810190811060018060401b0382111761007e57604052565b610048565b9061009661008f610034565b928361005c565b565b5f80fd5b60018060a01b031690565b6100b09061009c565b90565b6100bc816100a7565b036100c357565b5f80fd5b905051906100d4826100b3565b565b906020828203126100ef576100ec915f016100c7565b90565b610098565b6101126103ed8038038061010781610083565b9283398101906100d6565b90565b5f1b90565b9061012b60018060a01b0391610115565b9181191691161790565b90565b61014c6101476101519261009c565b610135565b61009c565b90565b61015d90610138565b90565b61016990610154565b90565b90565b9061018461017f61018b92610160565b61016c565b825461011a565b9055565b610199905f61016f565b56fe60806040526004361015610013575b610087565b61001d5f3561002c565b639e5faafc0361000e57610054565b60e01c90565b60405190565b5f80fd5b5f80fd5b5f91031261004a57565b61003c565b5f0190565b3461008257610064366004610040565b61006c610186565b610074610032565b8061007e8161004f565b0390f35b610038565b5f80fd5b5f1c90565b60018060a01b031690565b6100a76100ac9161008b565b610090565b90565b6100b9905461009b565b90565b60018060a01b031690565b90565b6100de6100d96100e3926100bc565b6100c7565b6100bc565b90565b6100ef906100ca565b90565b6100fb906100e6565b90565b610107906100ca565b90565b610113906100fe565b90565b5f80fd5b601f801991011690565b634e487b7160e01b5f52604160045260245ffd5b906101429061011a565b810190811067ffffffffffffffff82111761015c57604052565b610124565b60e01b90565b5f91031261017157565b61003c565b61017e610032565b3d5f823e3d90fd5b61019f61019a6101955f6100af565b6100f2565b61010a565b63f9850b7290803b15610216576101c2915f916101ba610032565b938492610161565b82528183816101d36004820161004f565b03925af18015610211576101e5575b50565b610204905f3d811161020a575b6101fc8183610138565b810190610167565b5f6101e2565b503d6101f2565b610176565b61011656fea264697066735822122058a40a2e41de26dfd3d49abfc1c07a210f1e0f7efd6447cee629334def72c86564736f6c634300081c0033","linkReferences":{}},"methodIdentifiers":{"attack()":"9e5faafc"},"id":0}