{"abi":[{"type":"constructor","inputs":[{"name":"_target","type":"address","internalType":"address"}],"stateMutability":"nonpayable"},{"type":"function","name":"ping","inputs":[],"outputs":[],"stateMutability":"nonpayable"}],"bytecode":{"object":"0x60806040523461002f576100196100146100f4565b61018f565b610021610034565b61010261019c823961010290f35b61003a565b60405190565b5f80fd5b601f801991011690565b634e487b7160e01b5f52604160045260245ffd5b906100669061003e565b810190811060018060401b0382111761007e57604052565b610048565b9061009661008f610034565b928361005c565b565b5f80fd5b60018060a01b031690565b6100b09061009c565b90565b6100bc816100a7565b036100c357565b5f80fd5b905051906100d4826100b3565b565b906020828203126100ef576100ec915f016100c7565b90565b610098565b61011261029e8038038061010781610083565b9283398101906100d6565b90565b5f1b90565b9061012b60018060a01b0391610115565b9181191691161790565b90565b61014c6101476101519261009c565b610135565b61009c565b90565b61015d90610138565b90565b61016990610154565b90565b90565b9061018461017f61018b92610160565b61016c565b825461011a565b9055565b610199905f61016f565b56fe608060405260043610156011575b6056565b60195f356026565b635c36b18603600d576041565b60e01c90565b5f80fd5b5f80fd5b5f910312603d57565b6030565b34605257604e3660046034565b60bd565b602c565b5f80fd5b5f1c90565b60018060a01b031690565b6073607791605a565b605f565b90565b60829054606a565b90565b60018060a01b031690565b90565b60a2609e60a6926085565b6090565b6085565b90565b60b0906093565b90565b60ba9060a9565b90565b60ca60c65f607a565b60b3565bfffea2646970667358221220f7711fe84108e887c1ca830590abe532e76c4492068ee3a5cc29257f1d75a78264736f6c634300081c0033","linkReferences":{}},"methodIdentifiers":{"ping()":"5c36b186"},"id":0}