{"abi":[{"type":"constructor","inputs":[{"name":"_target","type":"address","internalType":"address"}],"stateMutability":"nonpayable"},{"type":"function","name":"solve","inputs":[],"outputs":[],"stateMutability":"nonpayable"}],"bytecode":{"object":"0x60806040523461002f576100196100146100f4565b6101ea565b610021610034565b61051c610203823961051c90f35b61003a565b60405190565b5f80fd5b601f801991011690565b634e487b7160e01b5f52604160045260245ffd5b906100669061003e565b810190811060018060401b0382111761007e57604052565b610048565b9061009661008f610034565b928361005c565b565b5f80fd5b60018060a01b031690565b6100b09061009c565b90565b6100bc816100a7565b036100c357565b5f80fd5b905051906100d4826100b3565b565b906020828203126100ef576100ec915f016100c7565b90565b610098565b61011261071f8038038061010781610083565b9283398101906100d6565b90565b5f1b90565b906101265f1991610115565b9181191691161790565b90565b90565b90565b61014d61014861015292610130565b610136565b610133565b90565b90565b9061016d61016861017492610139565b610155565b825461011a565b9055565b9061018960018060a01b0391610115565b9181191691161790565b6101a76101a26101ac9261009c565b610136565b61009c565b90565b6101b890610193565b90565b6101c4906101af565b90565b90565b906101df6101da6101e6926101bb565b6101c7565b8254610178565b9055565b610200906101f9600a5f610158565b60016101ca565b56fe60806040526004361015610013575b610087565b61001d5f3561002c565b63890d69080361000e57610054565b60e01c90565b60405190565b5f80fd5b5f80fd5b5f91031261004a57565b61003c565b5f0190565b3461008257610064366004610040565b61006c610396565b610074610032565b8061007e8161004f565b0390f35b610038565b5f80fd5b5f1c90565b60018060a01b031690565b6100a76100ac9161008b565b610090565b90565b6100b9905461009b565b90565b60018060a01b031690565b90565b6100de6100d96100e3926100bc565b6100c7565b6100bc565b90565b6100ef906100ca565b90565b6100fb906100e6565b90565b610107906100ca565b90565b610113906100fe565b90565b5f80fd5b601f801991011690565b634e487b7160e01b5f52604160045260245ffd5b906101429061011a565b810190811067ffffffffffffffff82111761015c57604052565b610124565b60e01b90565b151590565b61017581610167565b0361017c57565b5f80fd5b9050519061018d8261016c565b565b906020828203126101a8576101a5915f01610180565b90565b61003c565b6101b5610032565b3d5f823e3d90fd5b60209181520190565b5f7f676574467265654d6f6e65792829204661696c65642e2e2e0000000000000000910152565b6101fa60186020926101bd565b610203816101c6565b0190565b61021c9060208101905f8183039101526101ed565b90565b1561022657565b61022e610032565b62461bcd60e51b81528061024460048201610207565b0390fd5b9061025b610254610032565b9283610138565b565b67ffffffffffffffff811161027b5761027760209161011a565b0190565b610124565b9061029261028d8361025d565b610248565b918252565b5f7f626f6b6f00000000000000000000000000000000000000000000000000000000910152565b6102c86004610280565b906102d560208301610297565b565b6102df6102be565b90565b6102ea6102d7565b90565b90565b6102fc6103019161008b565b6102ed565b90565b61030e90546102f0565b90565b5f91031261031b57565b61003c565b5190565b90825f9392825e0152565b61034e61035760209361035c9361034581610320565b938480936101bd565b95869101610324565b61011a565b0190565b90565b61036c90610360565b9052565b9291602061038c6103949360408701908782035f89015261032f565b940190610363565b565b6103cb60206103b56103b06103ab60016100af565b6100f2565b61010a565b63150d01f5906103c3610032565b938492610161565b8252815f816103dc6004820161004f565b03925af180156104e15761040b915f916104b3575b506104056103ff6001610167565b91610167565b1461021f565b61042561042061041b60016100af565b6100f2565b61010a565b6309be77076104326102e2565b61043b5f610304565b92803b156104ae576104605f809461046b610454610032565b97889687958694610161565b845260048401610370565b03925af180156104a95761047d575b50565b61049c905f3d81116104a2575b6104948183610138565b810190610311565b5f61047a565b503d61048a565b6101ad565b610116565b6104d4915060203d81116104da575b6104cc8183610138565b81019061018f565b5f6103f1565b503d6104c2565b6101ad56fea26469706673582212200b4239e8eda6680f43057ab22d52c5e8f07512f1f94922cb0a1a06af6662794d64736f6c634300081c0033","linkReferences":{}},"methodIdentifiers":{"solve()":"890d6908"},"id":0}