{"abi":[{"type":"function","name":"vote","inputs":[],"outputs":[{"name":"","type":"uint256","internalType":"uint256"}],"stateMutability":"pure"}],"bytecode":{"object":"0x6080604052348015600e575f5ffd5b5060ae80601a5f395ff3fe6080604052348015600e575f5ffd5b50600436106026575f3560e01c8063632a9a5214602a575b5f5ffd5b60306044565b604051603b91906061565b60405180910390f35b5f5f905090565b5f819050919050565b605b81604b565b82525050565b5f60208201905060725f8301846054565b9291505056fea26469706673582212205266218ec443671a0709471b0f9917715e77d3213f45a011620a219e2d3b87f464736f6c634300081c0033","linkReferences":{}},"methodIdentifiers":{"vote()":"632a9a52"},"id":18}