{"abi":[{"type":"constructor","inputs":[],"stateMutability":"nonpayable"},{"type":"function","name":"deposit","inputs":[],"outputs":[],"stateMutability":"nonpayable"},{"type":"function","name":"getResult","inputs":[],"outputs":[{"name":"","type":"string","internalType":"string"}],"stateMutability":"view"},{"type":"function","name":"getVoteCounter","inputs":[],"outputs":[{"name":"","type":"uint256","internalType":"uint256"},{"name":"","type":"uint256","internalType":"uint256"},{"name":"","type":"uint256","internalType":"uint256"}],"stateMutability":"view"},{"type":"function","name":"register","inputs":[{"name":"voter","type":"address","internalType":"address"}],"outputs":[],"stateMutability":"payable"},{"type":"function","name":"runVote","inputs":[],"outputs":[],"stateMutability":"nonpayable"}],"bytecode":{"object":"0x6080604052348015600e575f5ffd5b50325f5f6101000a81548173ffffffffffffffffffffffffffffffffffffffff021916908373ffffffffffffffffffffffffffffffffffffffff1602179055506110218061005b5f395ff3fe608060405260043610610049575f3560e01c80634420e4861461004d5780637291cdd5146100695780638271453b1461007f578063d0e30db0146100ab578063de292789146100c1575b5f5ffd5b61006760048036038101906100629190610ab2565b6100eb565b005b348015610074575f5ffd5b5061007d6101e7565b005b34801561008a575f5ffd5b506100936104f9565b6040516100a293929190610af5565b60405180910390f35b3480156100b6575f5ffd5b506100bf610598565b005b3480156100cc575f5ffd5b506100d56106fa565b6040516100e29190610b9a565b60405180910390f35b5f60149054906101000a900460ff161561013a576040517f08c379a000000000000000000000000000000000000000000000000000000000815260040161013190610c04565b60405180910390fd5b670de0b6b3a76400003414610184576040517f08c379a000000000000000000000000000000000000000000000000000000000815260040161017b90610c6c565b60405180910390fd5b600181908060018154018082558091505060019003905f5260205f20015f9091909190916101000a81548173ffffffffffffffffffffffffffffffffffffffff021916908373ffffffffffffffffffffffffffffffffffffffff16021790555050565b5f5f9054906101000a900473ffffffffffffffffffffffffffffffffffffffff1673ffffffffffffffffffffffffffffffffffffffff163273ffffffffffffffffffffffffffffffffffffffff1614610275576040517f08c379a000000000000000000000000000000000000000000000000000000000815260040161026c90610cd4565b60405180910390fd5b5f60149054906101000a900460ff16156102c4576040517f08c379a00000000000000000000000000000000000000000000000000000000081526004016102bb90610c04565b60405180910390fd5b5b5f60018054905011156104dd575f60018080805490506102e59190610d1f565b815481106102f6576102f5610d52565b5b905f5260205f20015f9054906101000a900473ffffffffffffffffffffffffffffffffffffffff1690505f5f8273ffffffffffffffffffffffffffffffffffffffff166040516024016040516020818303038152906040527f632a9a52000000000000000000000000000000000000000000000000000000007bffffffffffffffffffffffffffffffffffffffffffffffffffffffff19166020820180517bffffffffffffffffffffffffffffffffffffffffffffffffffffffff83818316178352505050506040516103c99190610dc3565b5f604051808303815f865af19150503d805f8114610402576040519150601f19603f3d011682016040523d82523d5f602084013e610407565b606091505b5091509150610415826108d4565b6104318180602001905181019061042c9190610e03565b61096d565b8115610483575f8180602001905181019061044c9190610e03565b905060028111610481576002816003811061046a57610469610d52565b5b015f81548092919061047b90610e2e565b91905055505b505b5f60018054905011156104d55760018054806104a2576104a1610e75565b5b600190038181905f5260205f20015f6101000a81549073ffffffffffffffffffffffffffffffffffffffff021916905590555b5050506102c5565b60015f60146101000a81548160ff021916908315150217905550565b5f5f5f5f60149054906101000a900460ff1661054a576040517f08c379a000000000000000000000000000000000000000000000000000000000815260040161054190610eec565b60405180910390fd5b60025f6003811061055e5761055d610d52565b5b0154600260016003811061057557610574610d52565b5b01546002806003811061058b5761058a610d52565b5b0154925092509250909192565b3373ffffffffffffffffffffffffffffffffffffffff163273ffffffffffffffffffffffffffffffffffffffff1614610606576040517f08c379a00000000000000000000000000000000000000000000000000000000081526004016105fd90610f54565b60405180910390fd5b5f5f9054906101000a900473ffffffffffffffffffffffffffffffffffffffff1673ffffffffffffffffffffffffffffffffffffffff163273ffffffffffffffffffffffffffffffffffffffff1614610694576040517f08c379a000000000000000000000000000000000000000000000000000000000815260040161068b90610cd4565b60405180910390fd5b5f5f9054906101000a900473ffffffffffffffffffffffffffffffffffffffff1673ffffffffffffffffffffffffffffffffffffffff166108fc4790811502906040515f60405180830381858888f193505050501580156106f7573d5f5f3e3d5ffd5b50565b60605f60149054906101000a900460ff1661074a576040517f08c379a000000000000000000000000000000000000000000000000000000000815260040161074190610eec565b60405180910390fd5b60025f6003811061075e5761075d610d52565b5b01546002806003811061077457610773610d52565b5b0154101580156107af5750600260016003811061079457610793610d52565b5b0154600280600381106107aa576107a9610d52565b5b015410155b156107f1576040518060400160405280600581526020017f4e616e646f00000000000000000000000000000000000000000000000000000081525090506108d1565b6002806003811061080557610804610d52565b5b015460025f6003811061081b5761081a610d52565b5b0154101580156108565750600260016003811061083b5761083a610d52565b5b015460025f6003811061085157610850610d52565b5b015410155b15610898576040518060400160405280600381526020017f416d6f000000000000000000000000000000000000000000000000000000000081525090506108d1565b6040518060400160405280600481526020017f426f6b6f0000000000000000000000000000000000000000000000000000000081525090505b90565b61096a816040516024016108e89190610f8c565b6040516020818303038152906040527f32458eed000000000000000000000000000000000000000000000000000000007bffffffffffffffffffffffffffffffffffffffffffffffffffffffff19166020820180517bffffffffffffffffffffffffffffffffffffffffffffffffffffffff8381831617835250505050610a06565b50565b610a03816040516024016109819190610fa5565b6040516020818303038152906040527ff82c50f1000000000000000000000000000000000000000000000000000000007bffffffffffffffffffffffffffffffffffffffffffffffffffffffff19166020820180517bffffffffffffffffffffffffffffffffffffffffffffffffffffffff8381831617835250505050610a06565b50565b610a1d81610a15610a20610a3f565b63ffffffff16565b50565b5f6a636f6e736f6c652e6c6f6790505f5f835160208501845afa505050565b610a4a819050919050565b610a52610fbe565b565b5f5ffd5b5f73ffffffffffffffffffffffffffffffffffffffff82169050919050565b5f610a8182610a58565b9050919050565b610a9181610a77565b8114610a9b575f5ffd5b50565b5f81359050610aac81610a88565b92915050565b5f60208284031215610ac757610ac6610a54565b5b5f610ad484828501610a9e565b91505092915050565b5f819050919050565b610aef81610add565b82525050565b5f606082019050610b085f830186610ae6565b610b156020830185610ae6565b610b226040830184610ae6565b949350505050565b5f81519050919050565b5f82825260208201905092915050565b8281835e5f83830152505050565b5f601f19601f8301169050919050565b5f610b6c82610b2a565b610b768185610b34565b9350610b86818560208601610b44565b610b8f81610b52565b840191505092915050565b5f6020820190508181035f830152610bb28184610b62565b905092915050565b7f566f746520697320616c72656164792066696e697368656400000000000000005f82015250565b5f610bee601883610b34565b9150610bf982610bba565b602082019050919050565b5f6020820190508181035f830152610c1b81610be2565b9050919050565b7f47697665206d652065786163746c7920312065746865720000000000000000005f82015250565b5f610c56601783610b34565b9150610c6182610c22565b602082019050919050565b5f6020820190508181035f830152610c8381610c4a565b9050919050565b7f4e6f74206f776e657200000000000000000000000000000000000000000000005f82015250565b5f610cbe600983610b34565b9150610cc982610c8a565b602082019050919050565b5f6020820190508181035f830152610ceb81610cb2565b9050919050565b7f4e487b71000000000000000000000000000000000000000000000000000000005f52601160045260245ffd5b5f610d2982610add565b9150610d3483610add565b9250828203905081811115610d4c57610d4b610cf2565b5b92915050565b7f4e487b71000000000000000000000000000000000000000000000000000000005f52603260045260245ffd5b5f81519050919050565b5f81905092915050565b5f610d9d82610d7f565b610da78185610d89565b9350610db7818560208601610b44565b80840191505092915050565b5f610dce8284610d93565b915081905092915050565b610de281610add565b8114610dec575f5ffd5b50565b5f81519050610dfd81610dd9565b92915050565b5f60208284031215610e1857610e17610a54565b5b5f610e2584828501610def565b91505092915050565b5f610e3882610add565b91507fffffffffffffffffffffffffffffffffffffffffffffffffffffffffffffffff8203610e6a57610e69610cf2565b5b600182019050919050565b7f4e487b71000000000000000000000000000000000000000000000000000000005f52603160045260245ffd5b7f566f7465206973206e6f742066696e69736865640000000000000000000000005f82015250565b5f610ed6601483610b34565b9150610ee182610ea2565b602082019050919050565b5f6020820190508181035f830152610f0381610eca565b9050919050565b7f4e6f7420454f41000000000000000000000000000000000000000000000000005f82015250565b5f610f3e600783610b34565b9150610f4982610f0a565b602082019050919050565b5f6020820190508181035f830152610f6b81610f32565b9050919050565b5f8115159050919050565b610f8681610f72565b82525050565b5f602082019050610f9f5f830184610f7d565b92915050565b5f602082019050610fb85f830184610ae6565b92915050565b7f4e487b71000000000000000000000000000000000000000000000000000000005f52605160045260245ffdfea2646970667358221220c2c6c8d615a1ae7a428f7f78adb9786bdf24cddccbe3475b48102730ee6ee4b564736f6c634300081c0033","linkReferences":{}},"methodIdentifiers":{"deposit()":"d0e30db0","getResult()":"de292789","getVoteCounter()":"8271453b","register(address)":"4420e486","runVote()":"7291cdd5"},"id":18}